{
  "_format": "hh-sol-artifact-1",
  "contractName": "TicketingSystem",
  "sourceName": "contracts/Tsystem.sol",
  "abi": [
    {
      "inputs": [],
      "stateMutability": "nonpayable",
      "type": "constructor"
    },
    {
      "anonymous": false,
      "inputs": [
        {
          "indexed": false,
          "internalType": "uint256",
          "name": "eventId",
          "type": "uint256"
        },
        {
          "indexed": false,
          "internalType": "string",
          "name": "name",
          "type": "string"
        },
        {
          "indexed": false,
          "internalType": "uint256",
          "name": "ticketsAvailable",
          "type": "uint256"
        },
        {
          "indexed": false,
          "internalType": "uint256",
          "name": "price",
          "type": "uint256"
        }
      ],
      "name": "EventCreated",
      "type": "event"
    },
    {
      "anonymous": false,
      "inputs": [
        {
          "indexed": false,
          "internalType": "uint256",
          "name": "eventId",
          "type": "uint256"
        }
      ],
      "name": "EventRemoved",
      "type": "event"
    },
    {
      "anonymous": false,
      "inputs": [
        {
          "indexed": false,
          "internalType": "uint256",
          "name": "eventId",
          "type": "uint256"
        },
        {
          "indexed": false,
          "internalType": "address",
          "name": "purchaser",
          "type": "address"
        },
        {
          "indexed": false,
          "internalType": "uint256",
          "name": "ticketsBought",
          "type": "uint256"
        }
      ],
      "name": "TicketsPurchased",
      "type": "event"
    },
    {
      "anonymous": false,
      "inputs": [
        {
          "indexed": false,
          "internalType": "uint256",
          "name": "fromEventId",
          "type": "uint256"
        },
        {
          "indexed": false,
          "internalType": "uint256",
          "name": "toEventId",
          "type": "uint256"
        },
        {
          "indexed": false,
          "internalType": "address",
          "name": "sender",
          "type": "address"
        },
        {
          "indexed": false,
          "internalType": "address",
          "name": "recipient",
          "type": "address"
        },
        {
          "indexed": false,
          "internalType": "uint256",
          "name": "ticketsTransferred",
          "type": "uint256"
        }
      ],
      "name": "TicketsTransferred",
      "type": "event"
    },
    {
      "stateMutability": "payable",
      "type": "fallback"
    },
    {
      "inputs": [
        {
          "internalType": "uint256",
          "name": "_rewardLimit",
          "type": "uint256"
        }
      ],
      "name": "changeRewardLimit",
      "outputs": [],
      "stateMutability": "nonpayable",
      "type": "function"
    },
    {
      "inputs": [
        {
          "internalType": "string",
          "name": "_name",
          "type": "string"
        },
        {
          "internalType": "uint256",
          "name": "_ticketsAvailable",
          "type": "uint256"
        },
        {
          "internalType": "uint256",
          "name": "_price",
          "type": "uint256"
        }
      ],
      "name": "createEvent",
      "outputs": [],
      "stateMutability": "nonpayable",
      "type": "function"
    },
    {
      "inputs": [
        {
          "internalType": "uint256",
          "name": "",
          "type": "uint256"
        }
      ],
      "name": "events",
      "outputs": [
        {
          "internalType": "string",
          "name": "name",
          "type": "string"
        },
        {
          "internalType": "uint256",
          "name": "ticketsAvailable",
          "type": "uint256"
        },
        {
          "internalType": "uint256",
          "name": "price",
          "type": "uint256"
        },
        {
          "internalType": "bool",
          "name": "active",
          "type": "bool"
        }
      ],
      "stateMutability": "view",
      "type": "function"
    },
    {
      "inputs": [],
      "name": "getContractBalance",
      "outputs": [
        {
          "internalType": "uint256",
          "name": "",
          "type": "uint256"
        }
      ],
      "stateMutability": "view",
      "type": "function"
    },
    {
      "inputs": [],
      "name": "getEventList",
      "outputs": [
        {
          "components": [
            {
              "internalType": "uint256",
              "name": "eventId",
              "type": "uint256"
            },
            {
              "internalType": "string",
              "name": "name",
              "type": "string"
            },
            {
              "internalType": "uint256",
              "name": "ticketsAvailable",
              "type": "uint256"
            },
            {
              "internalType": "uint256",
              "name": "price",
              "type": "uint256"
            },
            {
              "internalType": "bool",
              "name": "active",
              "type": "bool"
            }
          ],
          "internalType": "struct TicketingSystem.EventInfo[]",
          "name": "",
          "type": "tuple[]"
        }
      ],
      "stateMutability": "view",
      "type": "function"
    },
    {
      "inputs": [],
      "name": "getRemainSupply",
      "outputs": [
        {
          "internalType": "uint256",
          "name": "",
          "type": "uint256"
        }
      ],
      "stateMutability": "view",
      "type": "function"
    },
    {
      "inputs": [],
      "name": "getTotalSupply",
      "outputs": [
        {
          "internalType": "uint256",
          "name": "",
          "type": "uint256"
        }
      ],
      "stateMutability": "view",
      "type": "function"
    },
    {
      "inputs": [],
      "name": "getTotalSupplyUser",
      "outputs": [
        {
          "internalType": "uint256",
          "name": "",
          "type": "uint256"
        }
      ],
      "stateMutability": "view",
      "type": "function"
    },
    {
      "inputs": [],
      "name": "getUsersTickets",
      "outputs": [
        {
          "components": [
            {
              "internalType": "uint256",
              "name": "eventId",
              "type": "uint256"
            },
            {
              "internalType": "string",
              "name": "name",
              "type": "string"
            },
            {
              "internalType": "uint256",
              "name": "ticketsOwned",
              "type": "uint256"
            }
          ],
          "internalType": "struct TicketingSystem.UserTickets[]",
          "name": "",
          "type": "tuple[]"
        }
      ],
      "stateMutability": "view",
      "type": "function"
    },
    {
      "inputs": [],
      "name": "owner",
      "outputs": [
        {
          "internalType": "address",
          "name": "",
          "type": "address"
        }
      ],
      "stateMutability": "view",
      "type": "function"
    },
    {
      "inputs": [
        {
          "internalType": "uint256",
          "name": "_eventId",
          "type": "uint256"
        },
        {
          "internalType": "uint256",
          "name": "_ticketsToBuy",
          "type": "uint256"
        },
        {
          "internalType": "uint256",
          "name": "tokensPay",
          "type": "uint256"
        }
      ],
      "name": "purchaseTickets",
      "outputs": [],
      "stateMutability": "payable",
      "type": "function"
    },
    {
      "inputs": [
        {
          "internalType": "uint256",
          "name": "_eventId",
          "type": "uint256"
        }
      ],
      "name": "removeEvent",
      "outputs": [],
      "stateMutability": "nonpayable",
      "type": "function"
    },
    {
      "inputs": [],
      "name": "rewardLimit",
      "outputs": [
        {
          "internalType": "uint256",
          "name": "",
          "type": "uint256"
        }
      ],
      "stateMutability": "view",
      "type": "function"
    },
    {
      "inputs": [
        {
          "internalType": "uint256",
          "name": "_eventId",
          "type": "uint256"
        },
        {
          "internalType": "bool",
          "name": "status",
          "type": "bool"
        }
      ],
      "name": "setEventStatus",
      "outputs": [],
      "stateMutability": "nonpayable",
      "type": "function"
    },
    {
      "inputs": [
        {
          "internalType": "uint256",
          "name": "_amount",
          "type": "uint256"
        }
      ],
      "name": "withdrawToOwner",
      "outputs": [],
      "stateMutability": "nonpayable",
      "type": "function"
    },
    {
      "stateMutability": "payable",
      "type": "receive"
    }
  ],
  "bytecode": "0x60806040526616d14f87e221786002553480156200001c57600080fd5b5033600360006101000a81548173ffffffffffffffffffffffffffffffffffffffff021916908373ffffffffffffffffffffffffffffffffffffffff1602179055506127106040516200006f90620000df565b6200007b919062000144565b604051809103906000f08015801562000098573d6000803e3d6000fd5b50600460006101000a81548173ffffffffffffffffffffffffffffffffffffffff021916908373ffffffffffffffffffffffffffffffffffffffff16021790555062000161565b6117bb8062002b3183390190565b6000819050919050565b6000819050919050565b6000819050919050565b60006200012c620001266200012084620000ed565b62000101565b620000f7565b9050919050565b6200013e816200010b565b82525050565b60006020820190506200015b600083018462000133565b92915050565b6129c080620001716000396000f3fe6080604052600436106100ec5760003560e01c80636a5bbc1d1161008a5780639e9580f6116100595780639e9580f6146102cc578063c4b1363e146102f5578063c4e41b2214610320578063eb67399f1461034b576100f3565b80636a5bbc1d146102245780636f9fb98a1461024d578063836b035a146102785780638da5cb5b146102a1576100f3565b80632092cf91116100c65780632092cf911461018b578063392d399b146101b65780634fe869cc146101d257806356164e1e146101fb576100f3565b80630b791430146100f55780631c680d3c146101355780631db0694914610160576100f3565b366100f357005b005b34801561010157600080fd5b5061011c600480360381019061011791906117e0565b610376565b60405161012c94939291906118c7565b60405180910390f35b34801561014157600080fd5b5061014a61043b565b6040516101579190611913565b60405180910390f35b34801561016c57600080fd5b5061017561056e565b6040516101829190611ace565b60405180910390f35b34801561019757600080fd5b506101a061071c565b6040516101ad9190611913565b60405180910390f35b6101d060048036038101906101cb9190611af0565b6107bf565b005b3480156101de57600080fd5b506101f960048036038101906101f491906117e0565b610cee565b005b34801561020757600080fd5b50610222600480360381019061021d91906117e0565b610dcb565b005b34801561023057600080fd5b5061024b600480360381019061024691906117e0565b610f07565b005b34801561025957600080fd5b506102626110ac565b60405161026f9190611913565b60405180910390f35b34801561028457600080fd5b5061029f600480360381019061029a9190611b6f565b611144565b005b3480156102ad57600080fd5b506102b6611249565b6040516102c39190611bf0565b60405180910390f35b3480156102d857600080fd5b506102f360048036038101906102ee9190611d40565b61126f565b005b34801561030157600080fd5b5061030a6113c0565b6040516103179190611913565b60405180910390f35b34801561032c57600080fd5b506103356113c6565b6040516103429190611913565b60405180910390f35b34801561035757600080fd5b506103606114ee565b60405161036d9190611ec1565b60405180910390f35b600060205280600052604060002060009150905080600001805461039990611f12565b80601f01602080910402602001604051908101604052809291908181526020018280546103c590611f12565b80156104125780601f106103e757610100808354040283529160200191610412565b820191906000526020600020905b8154815290600101906020018083116103f557829003601f168201915b5050505050908060010154908060020154908060030160009054906101000a900460ff16905084565b6000600360009054906101000a900473ffffffffffffffffffffffffffffffffffffffff1673ffffffffffffffffffffffffffffffffffffffff163373ffffffffffffffffffffffffffffffffffffffff16146104cd576040517f08c379a00000000000000000000000000000000000000000000000000000000081526004016104c490611fb5565b60405180910390fd5b600460009054906101000a900473ffffffffffffffffffffffffffffffffffffffff1673ffffffffffffffffffffffffffffffffffffffff166370a08231306040518263ffffffff1660e01b81526004016105289190611bf0565b602060405180830381865afa158015610545573d6000803e3d6000fd5b505050506040513d601f19601f820116820180604052508101906105699190611fea565b905090565b6060600060015467ffffffffffffffff81111561058e5761058d611c15565b5b6040519080825280602002602001820160405280156105c757816020015b6105b4611744565b8152602001906001900390816105ac5790505b50905060005b600154811015610714576040518060a00160405280828152602001600080848152602001908152602001600020600001805461060890611f12565b80601f016020809104026020016040519081016040528092919081815260200182805461063490611f12565b80156106815780601f1061065657610100808354040283529160200191610681565b820191906000526020600020905b81548152906001019060200180831161066457829003601f168201915b5050505050815260200160008084815260200190815260200160002060010154815260200160008084815260200190815260200160002060020154815260200160008084815260200190815260200160002060030160009054906101000a900460ff1615158152508282815181106106fc576106fb612017565b5b602002602001018190525080806001019150506105cd565b508091505090565b6000600460009054906101000a900473ffffffffffffffffffffffffffffffffffffffff1673ffffffffffffffffffffffffffffffffffffffff166370a08231336040518263ffffffff1660e01b81526004016107799190611bf0565b602060405180830381865afa158015610796573d6000803e3d6000fd5b505050506040513d601f19601f820116820180604052508101906107ba9190611fea565b905090565b6001548310610803576040517f08c379a00000000000000000000000000000000000000000000000000000000081526004016107fa90612092565b60405180910390fd5b600080600085815260200190815260200160002090508060030160009054906101000a900460ff1661086a576040517f08c379a0000000000000000000000000000000000000000000000000000000008152600401610861906120fe565b60405180910390fd5b82816001015410156108b1576040517f08c379a00000000000000000000000000000000000000000000000000000000081526004016108a89061216a565b60405180910390fd5b6000821115610905576108c261071c565b821115610904576040517f08c379a00000000000000000000000000000000000000000000000000000000081526004016108fb906121fc565b60405180910390fd5b5b600061d7ef600584610917919061224b565b610921919061224b565b826002015485610931919061224b565b61093b919061228d565b905080341015610980576040517f08c379a00000000000000000000000000000000000000000000000000000000081526004016109779061230d565b60405180910390fd5b6000831115610ace57600460009054906101000a900473ffffffffffffffffffffffffffffffffffffffff1673ffffffffffffffffffffffffffffffffffffffff1663095ea7b333856040518363ffffffff1660e01b81526004016109e692919061232d565b6020604051808303816000875af1158015610a05573d6000803e3d6000fd5b505050506040513d601f19601f82011682018060405250810190610a29919061236b565b50600460009054906101000a900473ffffffffffffffffffffffffffffffffffffffff1673ffffffffffffffffffffffffffffffffffffffff166323b872dd3330866040518463ffffffff1660e01b8152600401610a8993929190612398565b6020604051808303816000875af1158015610aa8573d6000803e3d6000fd5b505050506040513d601f19601f82011682018060405250810190610acc919061236b565b505b838260040160003373ffffffffffffffffffffffffffffffffffffffff1673ffffffffffffffffffffffffffffffffffffffff1681526020019081526020016000206000828254610b1f91906123cf565b9250508190555083826001016000828254610b3a919061228d565b925050819055506002543410610cac57600060025434610b5a9190612432565b90506000811115610caa57600460009054906101000a900473ffffffffffffffffffffffffffffffffffffffff1673ffffffffffffffffffffffffffffffffffffffff1663095ea7b330836040518363ffffffff1660e01b8152600401610bc292919061232d565b6020604051808303816000875af1158015610be1573d6000803e3d6000fd5b505050506040513d601f19601f82011682018060405250810190610c05919061236b565b50600460009054906101000a900473ffffffffffffffffffffffffffffffffffffffff1673ffffffffffffffffffffffffffffffffffffffff166323b872dd3033846040518463ffffffff1660e01b8152600401610c6593929190612398565b6020604051808303816000875af1158015610c84573d6000803e3d6000fd5b505050506040513d601f19601f82011682018060405250810190610ca8919061236b565b505b505b7ff7c58d5e745042ae3ed41454214210ae1bca7e4a2087c19a3fb2cfc0ed7648e7853386604051610cdf93929190612463565b60405180910390a15050505050565b600360009054906101000a900473ffffffffffffffffffffffffffffffffffffffff1673ffffffffffffffffffffffffffffffffffffffff163373ffffffffffffffffffffffffffffffffffffffff1614610d7e576040517f08c379a0000000000000000000000000000000000000000000000000000000008152600401610d7590611fb5565b60405180910390fd5b60008111610dc1576040517f08c379a0000000000000000000000000000000000000000000000000000000008152600401610db8906124e6565b60405180910390fd5b8060028190555050565b600360009054906101000a900473ffffffffffffffffffffffffffffffffffffffff1673ffffffffffffffffffffffffffffffffffffffff163373ffffffffffffffffffffffffffffffffffffffff1614610e5b576040517f08c379a0000000000000000000000000000000000000000000000000000000008152600401610e5290611fb5565b60405180910390fd5b6001548110610e9f576040517f08c379a0000000000000000000000000000000000000000000000000000000008152600401610e9690612092565b60405180910390fd5b600080600083815260200190815260200160002060030160006101000a81548160ff0219169083151502179055507f6e7fca178a234e4fc64e21ad37436e010bf09bd34f8ae72ad858d8812ca17b3681604051610efc9190611913565b60405180910390a150565b600360009054906101000a900473ffffffffffffffffffffffffffffffffffffffff1673ffffffffffffffffffffffffffffffffffffffff163373ffffffffffffffffffffffffffffffffffffffff1614610f97576040517f08c379a0000000000000000000000000000000000000000000000000000000008152600401610f8e90611fb5565b60405180910390fd5b47811115610fda576040517f08c379a0000000000000000000000000000000000000000000000000000000008152600401610fd190612552565b60405180910390fd5b6000600360009054906101000a900473ffffffffffffffffffffffffffffffffffffffff1673ffffffffffffffffffffffffffffffffffffffff1682604051611022906125a3565b60006040518083038185875af1925050503d806000811461105f576040519150601f19603f3d011682016040523d82523d6000602084013e611064565b606091505b50509050806110a8576040517f08c379a000000000000000000000000000000000000000000000000000000000815260040161109f90612604565b60405180910390fd5b5050565b6000600360009054906101000a900473ffffffffffffffffffffffffffffffffffffffff1673ffffffffffffffffffffffffffffffffffffffff163373ffffffffffffffffffffffffffffffffffffffff161461113e576040517f08c379a000000000000000000000000000000000000000000000000000000000815260040161113590611fb5565b60405180910390fd5b47905090565b600360009054906101000a900473ffffffffffffffffffffffffffffffffffffffff1673ffffffffffffffffffffffffffffffffffffffff163373ffffffffffffffffffffffffffffffffffffffff16146111d4576040517f08c379a00000000000000000000000000000000000000000000000000000000081526004016111cb90611fb5565b60405180910390fd5b6001548210611218576040517f08c379a000000000000000000000000000000000000000000000000000000000815260040161120f90612092565b60405180910390fd5b8060008084815260200190815260200160002060030160006101000a81548160ff0219169083151502179055505050565b600360009054906101000a900473ffffffffffffffffffffffffffffffffffffffff1681565b600360009054906101000a900473ffffffffffffffffffffffffffffffffffffffff1673ffffffffffffffffffffffffffffffffffffffff163373ffffffffffffffffffffffffffffffffffffffff16146112ff576040517f08c379a00000000000000000000000000000000000000000000000000000000081526004016112f690611fb5565b60405180910390fd5b6000806000600154815260200190815260200160002090508381600001908161132891906127d0565b5082816001018190555081816002018190555060018160030160006101000a81548160ff0219169083151502179055506001600081548092919061136b906128a2565b91905055507f42e6867e52299b45991308391cccb9ee79466d194059ff10fc15c2d88f0ea0616001805461139f919061228d565b8585856040516113b294939291906128ea565b60405180910390a150505050565b60025481565b6000600360009054906101000a900473ffffffffffffffffffffffffffffffffffffffff1673ffffffffffffffffffffffffffffffffffffffff163373ffffffffffffffffffffffffffffffffffffffff1614611458576040517f08c379a000000000000000000000000000000000000000000000000000000000815260040161144f90611fb5565b60405180910390fd5b600460009054906101000a900473ffffffffffffffffffffffffffffffffffffffff1673ffffffffffffffffffffffffffffffffffffffff166318160ddd6040518163ffffffff1660e01b8152600401602060405180830381865afa1580156114c5573d6000803e3d6000fd5b505050506040513d601f19601f820116820180604052508101906114e99190611fea565b905090565b6060600060015467ffffffffffffffff81111561150e5761150d611c15565b5b60405190808252806020026020018201604052801561154757816020015b611534611775565b81526020019060019003908161152c5790505b5090506000805b600154811015611738576001151560008083815260200190815260200160002060030160009054906101000a900460ff1615150361172b57600080600083815260200190815260200160002060040160003373ffffffffffffffffffffffffffffffffffffffff1673ffffffffffffffffffffffffffffffffffffffff16815260200190815260200160002054111561172a576040518060600160405280828152602001600080848152602001908152602001600020600001805461161290611f12565b80601f016020809104026020016040519081016040528092919081815260200182805461163e90611f12565b801561168b5780601f106116605761010080835404028352916020019161168b565b820191906000526020600020905b81548152906001019060200180831161166e57829003601f168201915b5050505050815260200160008084815260200190815260200160002060040160003373ffffffffffffffffffffffffffffffffffffffff1673ffffffffffffffffffffffffffffffffffffffff1681526020019081526020016000205481525083836fffffffffffffffffffffffffffffffff16815181106117105761170f612017565b5b6020026020010181905250818061172690612952565b9250505b5b808060010191505061154e565b50808252819250505090565b6040518060a00160405280600081526020016060815260200160008152602001600081526020016000151581525090565b60405180606001604052806000815260200160608152602001600081525090565b6000604051905090565b600080fd5b600080fd5b6000819050919050565b6117bd816117aa565b81146117c857600080fd5b50565b6000813590506117da816117b4565b92915050565b6000602082840312156117f6576117f56117a0565b5b6000611804848285016117cb565b91505092915050565b600081519050919050565b600082825260208201905092915050565b60005b8381101561184757808201518184015260208101905061182c565b60008484015250505050565b6000601f19601f8301169050919050565b600061186f8261180d565b6118798185611818565b9350611889818560208601611829565b61189281611853565b840191505092915050565b6118a6816117aa565b82525050565b60008115159050919050565b6118c1816118ac565b82525050565b600060808201905081810360008301526118e18187611864565b90506118f0602083018661189d565b6118fd604083018561189d565b61190a60608301846118b8565b95945050505050565b6000602082019050611928600083018461189d565b92915050565b600081519050919050565b600082825260208201905092915050565b6000819050602082019050919050565b611963816117aa565b82525050565b600082825260208201905092915050565b60006119858261180d565b61198f8185611969565b935061199f818560208601611829565b6119a881611853565b840191505092915050565b6119bc816118ac565b82525050565b600060a0830160008301516119da600086018261195a565b50602083015184820360208601526119f2828261197a565b9150506040830151611a07604086018261195a565b506060830151611a1a606086018261195a565b506080830151611a2d60808601826119b3565b508091505092915050565b6000611a4483836119c2565b905092915050565b6000602082019050919050565b6000611a648261192e565b611a6e8185611939565b935083602082028501611a808561194a565b8060005b85811015611abc5784840389528151611a9d8582611a38565b9450611aa883611a4c565b925060208a01995050600181019050611a84565b50829750879550505050505092915050565b60006020820190508181036000830152611ae88184611a59565b905092915050565b600080600060608486031215611b0957611b086117a0565b5b6000611b17868287016117cb565b9350506020611b28868287016117cb565b9250506040611b39868287016117cb565b9150509250925092565b611b4c816118ac565b8114611b5757600080fd5b50565b600081359050611b6981611b43565b92915050565b60008060408385031215611b8657611b856117a0565b5b6000611b94858286016117cb565b9250506020611ba585828601611b5a565b9150509250929050565b600073ffffffffffffffffffffffffffffffffffffffff82169050919050565b6000611bda82611baf565b9050919050565b611bea81611bcf565b82525050565b6000602082019050611c056000830184611be1565b92915050565b600080fd5b600080fd5b7f4e487b7100000000000000000000000000000000000000000000000000000000600052604160045260246000fd5b611c4d82611853565b810181811067ffffffffffffffff82111715611c6c57611c6b611c15565b5b80604052505050565b6000611c7f611796565b9050611c8b8282611c44565b919050565b600067ffffffffffffffff821115611cab57611caa611c15565b5b611cb482611853565b9050602081019050919050565b82818337600083830152505050565b6000611ce3611cde84611c90565b611c75565b905082815260208101848484011115611cff57611cfe611c10565b5b611d0a848285611cc1565b509392505050565b600082601f830112611d2757611d26611c0b565b5b8135611d37848260208601611cd0565b91505092915050565b600080600060608486031215611d5957611d586117a0565b5b600084013567ffffffffffffffff811115611d7757611d766117a5565b5b611d8386828701611d12565b9350506020611d94868287016117cb565b9250506040611da5868287016117cb565b9150509250925092565b600081519050919050565b600082825260208201905092915050565b6000819050602082019050919050565b6000606083016000830151611df3600086018261195a565b5060208301518482036020860152611e0b828261197a565b9150506040830151611e20604086018261195a565b508091505092915050565b6000611e378383611ddb565b905092915050565b6000602082019050919050565b6000611e5782611daf565b611e618185611dba565b935083602082028501611e7385611dcb565b8060005b85811015611eaf5784840389528151611e908582611e2b565b9450611e9b83611e3f565b925060208a01995050600181019050611e77565b50829750879550505050505092915050565b60006020820190508181036000830152611edb8184611e4c565b905092915050565b7f4e487b7100000000000000000000000000000000000000000000000000000000600052602260045260246000fd5b60006002820490506001821680611f2a57607f821691505b602082108103611f3d57611f3c611ee3565b5b50919050565b7f4f6e6c79206f776e65722063616e2063616c6c20746869732066756e6374696f60008201527f6e00000000000000000000000000000000000000000000000000000000000000602082015250565b6000611f9f602183611818565b9150611faa82611f43565b604082019050919050565b60006020820190508181036000830152611fce81611f92565b9050919050565b600081519050611fe4816117b4565b92915050565b60006020828403121561200057611fff6117a0565b5b600061200e84828501611fd5565b91505092915050565b7f4e487b7100000000000000000000000000000000000000000000000000000000600052603260045260246000fd5b7f496e76616c6964206576656e7420494400000000000000000000000000000000600082015250565b600061207c601083611818565b915061208782612046565b602082019050919050565b600060208201905081810360008301526120ab8161206f565b9050919050565b7f4576656e74206973206e6f742061637469766500000000000000000000000000600082015250565b60006120e8601383611818565b91506120f3826120b2565b602082019050919050565b60006020820190508181036000830152612117816120db565b9050919050565b7f4e6f7420656e6f756768207469636b65747320617661696c61626c6500000000600082015250565b6000612154601c83611818565b915061215f8261211e565b602082019050919050565b6000602082019050818103600083015261218381612147565b9050919050565b7f4e6f7420656e6f75676820746f6b656e7320696e20796f7572206163636f756e60008201527f7400000000000000000000000000000000000000000000000000000000000000602082015250565b60006121e6602183611818565b91506121f18261218a565b604082019050919050565b60006020820190508181036000830152612215816121d9565b9050919050565b7f4e487b7100000000000000000000000000000000000000000000000000000000600052601160045260246000fd5b6000612256826117aa565b9150612261836117aa565b925082820261226f816117aa565b915082820484148315176122865761228561221c565b5b5092915050565b6000612298826117aa565b91506122a3836117aa565b92508282039050818111156122bb576122ba61221c565b5b92915050565b7f4e6f7420656e6f756768206d6f6e65792073656e640000000000000000000000600082015250565b60006122f7601583611818565b9150612302826122c1565b602082019050919050565b60006020820190508181036000830152612326816122ea565b9050919050565b60006040820190506123426000830185611be1565b61234f602083018461189d565b9392505050565b60008151905061236581611b43565b92915050565b600060208284031215612381576123806117a0565b5b600061238f84828501612356565b91505092915050565b60006060820190506123ad6000830186611be1565b6123ba6020830185611be1565b6123c7604083018461189d565b949350505050565b60006123da826117aa565b91506123e5836117aa565b92508282019050808211156123fd576123fc61221c565b5b92915050565b7f4e487b7100000000000000000000000000000000000000000000000000000000600052601260045260246000fd5b600061243d826117aa565b9150612448836117aa565b92508261245857612457612403565b5b828204905092915050565b6000606082019050612478600083018661189d565b6124856020830185611be1565b612492604083018461189d565b949350505050565b7f526577617264204c696d6974206d7573742062652061626f7665203000000000600082015250565b60006124d0601c83611818565b91506124db8261249a565b602082019050919050565b600060208201905081810360008301526124ff816124c3565b9050919050565b7f4e6f7420656e6f756768206d6f6e657900000000000000000000000000000000600082015250565b600061253c601083611818565b915061254782612506565b602082019050919050565b6000602082019050818103600083015261256b8161252f565b9050919050565b600081905092915050565b50565b600061258d600083612572565b91506125988261257d565b600082019050919050565b60006125ae82612580565b9150819050919050565b7f5472616e73666572206661696c65642100000000000000000000000000000000600082015250565b60006125ee601083611818565b91506125f9826125b8565b602082019050919050565b6000602082019050818103600083015261261d816125e1565b9050919050565b60008190508160005260206000209050919050565b60006020601f8301049050919050565b600082821b905092915050565b6000600883026126867fffffffffffffffffffffffffffffffffffffffffffffffffffffffffffffffff82612649565b6126908683612649565b95508019841693508086168417925050509392505050565b6000819050919050565b60006126cd6126c86126c3846117aa565b6126a8565b6117aa565b9050919050565b6000819050919050565b6126e7836126b2565b6126fb6126f3826126d4565b848454612656565b825550505050565b600090565b612710612703565b61271b8184846126de565b505050565b5b8181101561273f57612734600082612708565b600181019050612721565b5050565b601f8211156127845761275581612624565b61275e84612639565b8101602085101561276d578190505b61278161277985612639565b830182612720565b50505b505050565b600082821c905092915050565b60006127a760001984600802612789565b1980831691505092915050565b60006127c08383612796565b9150826002028217905092915050565b6127d98261180d565b67ffffffffffffffff8111156127f2576127f1611c15565b5b6127fc8254611f12565b612807828285612743565b600060209050601f83116001811461283a5760008415612828578287015190505b61283285826127b4565b86555061289a565b601f19841661284886612624565b60005b828110156128705784890151825560018201915060208501945060208101905061284b565b8683101561288d5784890151612889601f891682612796565b8355505b6001600288020188555050505b505050505050565b60006128ad826117aa565b91507fffffffffffffffffffffffffffffffffffffffffffffffffffffffffffffffff82036128df576128de61221c565b5b600182019050919050565b60006080820190506128ff600083018761189d565b81810360208301526129118186611864565b9050612920604083018561189d565b61292d606083018461189d565b95945050505050565b60006fffffffffffffffffffffffffffffffff82169050919050565b600061295d82612936565b91506fffffffffffffffffffffffffffffffff820361297f5761297e61221c565b5b60018201905091905056fea264697066735822122056c7cc0dfef108a4de97cdbcfb1afa0bb0ca2f66b40b68cd2e57c31ed6b9219064736f6c6343000818003360806040523480156200001157600080fd5b50604051620017bb380380620017bb8339818101604052810190620000379190620003df565b6040518060400160405280600681526020017f5449434b455400000000000000000000000000000000000000000000000000008152506040518060400160405280600381526020017f54434b00000000000000000000000000000000000000000000000000000000008152508160039081620000b4919062000681565b508060049081620000c6919062000681565b505050620000db3382620000e260201b60201c565b506200089f565b600073ffffffffffffffffffffffffffffffffffffffff168273ffffffffffffffffffffffffffffffffffffffff1603620001575760006040517fec442f050000000000000000000000000000000000000000000000000000000081526004016200014e9190620007ad565b60405180910390fd5b6200016b600083836200016f60201b60201c565b5050565b600073ffffffffffffffffffffffffffffffffffffffff168373ffffffffffffffffffffffffffffffffffffffff1603620001c5578060026000828254620001b89190620007f9565b925050819055506200029b565b60008060008573ffffffffffffffffffffffffffffffffffffffff1673ffffffffffffffffffffffffffffffffffffffff1681526020019081526020016000205490508181101562000254578381836040517fe450d38c0000000000000000000000000000000000000000000000000000000081526004016200024b9392919062000845565b60405180910390fd5b8181036000808673ffffffffffffffffffffffffffffffffffffffff1673ffffffffffffffffffffffffffffffffffffffff16815260200190815260200160002081905550505b600073ffffffffffffffffffffffffffffffffffffffff168273ffffffffffffffffffffffffffffffffffffffff1603620002e6578060026000828254039250508190555062000333565b806000808473ffffffffffffffffffffffffffffffffffffffff1673ffffffffffffffffffffffffffffffffffffffff168152602001908152602001600020600082825401925050819055505b8173ffffffffffffffffffffffffffffffffffffffff168373ffffffffffffffffffffffffffffffffffffffff167fddf252ad1be2c89b69c2b068fc378daa952ba7f163c4a11628f55a4df523b3ef8360405162000392919062000882565b60405180910390a3505050565b600080fd5b6000819050919050565b620003b981620003a4565b8114620003c557600080fd5b50565b600081519050620003d981620003ae565b92915050565b600060208284031215620003f857620003f76200039f565b5b60006200040884828501620003c8565b91505092915050565b600081519050919050565b7f4e487b7100000000000000000000000000000000000000000000000000000000600052604160045260246000fd5b7f4e487b7100000000000000000000000000000000000000000000000000000000600052602260045260246000fd5b600060028204905060018216806200049357607f821691505b602082108103620004a957620004a86200044b565b5b50919050565b60008190508160005260206000209050919050565b60006020601f8301049050919050565b600082821b905092915050565b600060088302620005137fffffffffffffffffffffffffffffffffffffffffffffffffffffffffffffffff82620004d4565b6200051f8683620004d4565b95508019841693508086168417925050509392505050565b6000819050919050565b6000620005626200055c6200055684620003a4565b62000537565b620003a4565b9050919050565b6000819050919050565b6200057e8362000541565b620005966200058d8262000569565b848454620004e1565b825550505050565b600090565b620005ad6200059e565b620005ba81848462000573565b505050565b5b81811015620005e257620005d6600082620005a3565b600181019050620005c0565b5050565b601f8211156200063157620005fb81620004af565b6200060684620004c4565b8101602085101562000616578190505b6200062e6200062585620004c4565b830182620005bf565b50505b505050565b600082821c905092915050565b6000620006566000198460080262000636565b1980831691505092915050565b600062000671838362000643565b9150826002028217905092915050565b6200068c8262000411565b67ffffffffffffffff811115620006a857620006a76200041c565b5b620006b482546200047a565b620006c1828285620005e6565b600060209050601f831160018114620006f95760008415620006e4578287015190505b620006f0858262000663565b86555062000760565b601f1984166200070986620004af565b60005b8281101562000733578489015182556001820191506020850194506020810190506200070c565b868310156200075357848901516200074f601f89168262000643565b8355505b6001600288020188555050505b505050505050565b600073ffffffffffffffffffffffffffffffffffffffff82169050919050565b6000620007958262000768565b9050919050565b620007a78162000788565b82525050565b6000602082019050620007c460008301846200079c565b92915050565b7f4e487b7100000000000000000000000000000000000000000000000000000000600052601160045260246000fd5b60006200080682620003a4565b91506200081383620003a4565b92508282019050808211156200082e576200082d620007ca565b5b92915050565b6200083f81620003a4565b82525050565b60006060820190506200085c60008301866200079c565b6200086b602083018562000834565b6200087a604083018462000834565b949350505050565b600060208201905062000899600083018462000834565b92915050565b610f0c80620008af6000396000f3fe608060405234801561001057600080fd5b506004361061009e5760003560e01c806370a082311161006657806370a082311461015d5780639533a3841461018d57806395d89b41146101a9578063a9059cbb146101c7578063dd62ed3e146101f75761009e565b806306fdde03146100a3578063095ea7b3146100c157806318160ddd146100f157806323b872dd1461010f578063313ce5671461013f575b600080fd5b6100ab610227565b6040516100b89190610b60565b60405180910390f35b6100db60048036038101906100d69190610c1b565b6102b9565b6040516100e89190610c76565b60405180910390f35b6100f96102dc565b6040516101069190610ca0565b60405180910390f35b61012960048036038101906101249190610cbb565b6102e6565b6040516101369190610c76565b60405180910390f35b610147610315565b6040516101549190610d2a565b60405180910390f35b61017760048036038101906101729190610d45565b61031e565b6040516101849190610ca0565b60405180910390f35b6101a760048036038101906101a29190610c1b565b610366565b005b6101b1610374565b6040516101be9190610b60565b60405180910390f35b6101e160048036038101906101dc9190610c1b565b610406565b6040516101ee9190610c76565b60405180910390f35b610211600480360381019061020c9190610d72565b610429565b60405161021e9190610ca0565b60405180910390f35b60606003805461023690610de1565b80601f016020809104026020016040519081016040528092919081815260200182805461026290610de1565b80156102af5780601f10610284576101008083540402835291602001916102af565b820191906000526020600020905b81548152906001019060200180831161029257829003601f168201915b5050505050905090565b6000806102c46104b0565b90506102d18185856104b8565b600191505092915050565b6000600254905090565b6000806102f16104b0565b90506102fe8582856104ca565b61030985858561055e565b60019150509392505050565b60006012905090565b60008060008373ffffffffffffffffffffffffffffffffffffffff1673ffffffffffffffffffffffffffffffffffffffff168152602001908152602001600020549050919050565b6103708282610652565b5050565b60606004805461038390610de1565b80601f01602080910402602001604051908101604052809291908181526020018280546103af90610de1565b80156103fc5780601f106103d1576101008083540402835291602001916103fc565b820191906000526020600020905b8154815290600101906020018083116103df57829003601f168201915b5050505050905090565b6000806104116104b0565b905061041e81858561055e565b600191505092915050565b6000600160008473ffffffffffffffffffffffffffffffffffffffff1673ffffffffffffffffffffffffffffffffffffffff16815260200190815260200160002060008373ffffffffffffffffffffffffffffffffffffffff1673ffffffffffffffffffffffffffffffffffffffff16815260200190815260200160002054905092915050565b600033905090565b6104c583838360016106d4565b505050565b60006104d68484610429565b90507fffffffffffffffffffffffffffffffffffffffffffffffffffffffffffffffff81146105585781811015610548578281836040517ffb8f41b200000000000000000000000000000000000000000000000000000000815260040161053f93929190610e21565b60405180910390fd5b610557848484840360006106d4565b5b50505050565b600073ffffffffffffffffffffffffffffffffffffffff168373ffffffffffffffffffffffffffffffffffffffff16036105d05760006040517f96c6fd1e0000000000000000000000000000000000000000000000000000000081526004016105c79190610e58565b60405180910390fd5b600073ffffffffffffffffffffffffffffffffffffffff168273ffffffffffffffffffffffffffffffffffffffff16036106425760006040517fec442f050000000000000000000000000000000000000000000000000000000081526004016106399190610e58565b60405180910390fd5b61064d8383836108ab565b505050565b600073ffffffffffffffffffffffffffffffffffffffff168273ffffffffffffffffffffffffffffffffffffffff16036106c45760006040517fec442f050000000000000000000000000000000000000000000000000000000081526004016106bb9190610e58565b60405180910390fd5b6106d0600083836108ab565b5050565b600073ffffffffffffffffffffffffffffffffffffffff168473ffffffffffffffffffffffffffffffffffffffff16036107465760006040517fe602df0500000000000000000000000000000000000000000000000000000000815260040161073d9190610e58565b60405180910390fd5b600073ffffffffffffffffffffffffffffffffffffffff168373ffffffffffffffffffffffffffffffffffffffff16036107b85760006040517f94280d620000000000000000000000000000000000000000000000000000000081526004016107af9190610e58565b60405180910390fd5b81600160008673ffffffffffffffffffffffffffffffffffffffff1673ffffffffffffffffffffffffffffffffffffffff16815260200190815260200160002060008573ffffffffffffffffffffffffffffffffffffffff1673ffffffffffffffffffffffffffffffffffffffff1681526020019081526020016000208190555080156108a5578273ffffffffffffffffffffffffffffffffffffffff168473ffffffffffffffffffffffffffffffffffffffff167f8c5be1e5ebec7d5bd14f71427d1e84f3dd0314c0f7b2291e5b200ac8c7c3b9258460405161089c9190610ca0565b60405180910390a35b50505050565b600073ffffffffffffffffffffffffffffffffffffffff168373ffffffffffffffffffffffffffffffffffffffff16036108fd5780600260008282546108f19190610ea2565b925050819055506109d0565b60008060008573ffffffffffffffffffffffffffffffffffffffff1673ffffffffffffffffffffffffffffffffffffffff16815260200190815260200160002054905081811015610989578381836040517fe450d38c00000000000000000000000000000000000000000000000000000000815260040161098093929190610e21565b60405180910390fd5b8181036000808673ffffffffffffffffffffffffffffffffffffffff1673ffffffffffffffffffffffffffffffffffffffff16815260200190815260200160002081905550505b600073ffffffffffffffffffffffffffffffffffffffff168273ffffffffffffffffffffffffffffffffffffffff1603610a195780600260008282540392505081905550610a66565b806000808473ffffffffffffffffffffffffffffffffffffffff1673ffffffffffffffffffffffffffffffffffffffff168152602001908152602001600020600082825401925050819055505b8173ffffffffffffffffffffffffffffffffffffffff168373ffffffffffffffffffffffffffffffffffffffff167fddf252ad1be2c89b69c2b068fc378daa952ba7f163c4a11628f55a4df523b3ef83604051610ac39190610ca0565b60405180910390a3505050565b600081519050919050565b600082825260208201905092915050565b60005b83811015610b0a578082015181840152602081019050610aef565b60008484015250505050565b6000601f19601f8301169050919050565b6000610b3282610ad0565b610b3c8185610adb565b9350610b4c818560208601610aec565b610b5581610b16565b840191505092915050565b60006020820190508181036000830152610b7a8184610b27565b905092915050565b600080fd5b600073ffffffffffffffffffffffffffffffffffffffff82169050919050565b6000610bb282610b87565b9050919050565b610bc281610ba7565b8114610bcd57600080fd5b50565b600081359050610bdf81610bb9565b92915050565b6000819050919050565b610bf881610be5565b8114610c0357600080fd5b50565b600081359050610c1581610bef565b92915050565b60008060408385031215610c3257610c31610b82565b5b6000610c4085828601610bd0565b9250506020610c5185828601610c06565b9150509250929050565b60008115159050919050565b610c7081610c5b565b82525050565b6000602082019050610c8b6000830184610c67565b92915050565b610c9a81610be5565b82525050565b6000602082019050610cb56000830184610c91565b92915050565b600080600060608486031215610cd457610cd3610b82565b5b6000610ce286828701610bd0565b9350506020610cf386828701610bd0565b9250506040610d0486828701610c06565b9150509250925092565b600060ff82169050919050565b610d2481610d0e565b82525050565b6000602082019050610d3f6000830184610d1b565b92915050565b600060208284031215610d5b57610d5a610b82565b5b6000610d6984828501610bd0565b91505092915050565b60008060408385031215610d8957610d88610b82565b5b6000610d9785828601610bd0565b9250506020610da885828601610bd0565b9150509250929050565b7f4e487b7100000000000000000000000000000000000000000000000000000000600052602260045260246000fd5b60006002820490506001821680610df957607f821691505b602082108103610e0c57610e0b610db2565b5b50919050565b610e1b81610ba7565b82525050565b6000606082019050610e366000830186610e12565b610e436020830185610c91565b610e506040830184610c91565b949350505050565b6000602082019050610e6d6000830184610e12565b92915050565b7f4e487b7100000000000000000000000000000000000000000000000000000000600052601160045260246000fd5b6000610ead82610be5565b9150610eb883610be5565b9250828201905080821115610ed057610ecf610e73565b5b9291505056fea2646970667358221220563c85573b27071eba27f8e1ff3edcb6ba55e3bd539ac8cfa27e425c484c367464736f6c63430008180033",
  "linkReferences": {},
  "deployedLinkReferences": {}
}