{
  "_format": "hh-sol-artifact-1",
  "contractName": "TicketingSystem",
  "sourceName": "contracts/Tsystem.sol",
  "abi": [
    {
      "inputs": [],
      "stateMutability": "nonpayable",
      "type": "constructor"
    },
    {
      "anonymous": false,
      "inputs": [
        {
          "indexed": false,
          "internalType": "uint256",
          "name": "eventId",
          "type": "uint256"
        },
        {
          "indexed": false,
          "internalType": "string",
          "name": "name",
          "type": "string"
        },
        {
          "indexed": false,
          "internalType": "uint256",
          "name": "ticketsAvailable",
          "type": "uint256"
        },
        {
          "indexed": false,
          "internalType": "uint256",
          "name": "price",
          "type": "uint256"
        }
      ],
      "name": "EventCreated",
      "type": "event"
    },
    {
      "anonymous": false,
      "inputs": [
        {
          "indexed": false,
          "internalType": "uint256",
          "name": "eventId",
          "type": "uint256"
        }
      ],
      "name": "EventRemoved",
      "type": "event"
    },
    {
      "anonymous": false,
      "inputs": [
        {
          "indexed": false,
          "internalType": "uint256",
          "name": "eventId",
          "type": "uint256"
        },
        {
          "indexed": false,
          "internalType": "address",
          "name": "purchaser",
          "type": "address"
        },
        {
          "indexed": false,
          "internalType": "uint256",
          "name": "ticketsBought",
          "type": "uint256"
        }
      ],
      "name": "TicketsPurchased",
      "type": "event"
    },
    {
      "anonymous": false,
      "inputs": [
        {
          "indexed": false,
          "internalType": "uint256",
          "name": "fromEventId",
          "type": "uint256"
        },
        {
          "indexed": false,
          "internalType": "uint256",
          "name": "toEventId",
          "type": "uint256"
        },
        {
          "indexed": false,
          "internalType": "address",
          "name": "sender",
          "type": "address"
        },
        {
          "indexed": false,
          "internalType": "address",
          "name": "recipient",
          "type": "address"
        },
        {
          "indexed": false,
          "internalType": "uint256",
          "name": "ticketsTransferred",
          "type": "uint256"
        }
      ],
      "name": "TicketsTransferred",
      "type": "event"
    },
    {
      "stateMutability": "payable",
      "type": "fallback"
    },
    {
      "inputs": [
        {
          "internalType": "uint256",
          "name": "_rewardLimit",
          "type": "uint256"
        }
      ],
      "name": "changeRewardLimit",
      "outputs": [],
      "stateMutability": "nonpayable",
      "type": "function"
    },
    {
      "inputs": [
        {
          "internalType": "string",
          "name": "_name",
          "type": "string"
        },
        {
          "internalType": "uint256",
          "name": "_ticketsAvailable",
          "type": "uint256"
        },
        {
          "internalType": "uint256",
          "name": "_price",
          "type": "uint256"
        }
      ],
      "name": "createEvent",
      "outputs": [],
      "stateMutability": "nonpayable",
      "type": "function"
    },
    {
      "inputs": [
        {
          "internalType": "uint256",
          "name": "",
          "type": "uint256"
        }
      ],
      "name": "events",
      "outputs": [
        {
          "internalType": "string",
          "name": "name",
          "type": "string"
        },
        {
          "internalType": "uint256",
          "name": "ticketsAvailable",
          "type": "uint256"
        },
        {
          "internalType": "uint256",
          "name": "price",
          "type": "uint256"
        },
        {
          "internalType": "bool",
          "name": "active",
          "type": "bool"
        }
      ],
      "stateMutability": "view",
      "type": "function"
    },
    {
      "inputs": [],
      "name": "getContractBalance",
      "outputs": [
        {
          "internalType": "uint256",
          "name": "",
          "type": "uint256"
        }
      ],
      "stateMutability": "view",
      "type": "function"
    },
    {
      "inputs": [],
      "name": "getEventList",
      "outputs": [
        {
          "components": [
            {
              "internalType": "uint256",
              "name": "eventId",
              "type": "uint256"
            },
            {
              "internalType": "string",
              "name": "name",
              "type": "string"
            },
            {
              "internalType": "uint256",
              "name": "ticketsAvailable",
              "type": "uint256"
            },
            {
              "internalType": "uint256",
              "name": "price",
              "type": "uint256"
            },
            {
              "internalType": "bool",
              "name": "active",
              "type": "bool"
            }
          ],
          "internalType": "struct TicketingSystem.EventInfo[]",
          "name": "",
          "type": "tuple[]"
        }
      ],
      "stateMutability": "view",
      "type": "function"
    },
    {
      "inputs": [],
      "name": "getRemainSupply",
      "outputs": [
        {
          "internalType": "uint256",
          "name": "",
          "type": "uint256"
        }
      ],
      "stateMutability": "view",
      "type": "function"
    },
    {
      "inputs": [],
      "name": "getTotalSupply",
      "outputs": [
        {
          "internalType": "uint256",
          "name": "",
          "type": "uint256"
        }
      ],
      "stateMutability": "view",
      "type": "function"
    },
    {
      "inputs": [],
      "name": "getTotalSupplyUser",
      "outputs": [
        {
          "internalType": "uint256",
          "name": "",
          "type": "uint256"
        }
      ],
      "stateMutability": "view",
      "type": "function"
    },
    {
      "inputs": [],
      "name": "getUsersTickets",
      "outputs": [
        {
          "components": [
            {
              "internalType": "uint256",
              "name": "eventId",
              "type": "uint256"
            },
            {
              "internalType": "string",
              "name": "name",
              "type": "string"
            },
            {
              "internalType": "uint256",
              "name": "ticketsOwned",
              "type": "uint256"
            }
          ],
          "internalType": "struct TicketingSystem.UserTickets[]",
          "name": "",
          "type": "tuple[]"
        }
      ],
      "stateMutability": "view",
      "type": "function"
    },
    {
      "inputs": [],
      "name": "owner",
      "outputs": [
        {
          "internalType": "address",
          "name": "",
          "type": "address"
        }
      ],
      "stateMutability": "view",
      "type": "function"
    },
    {
      "inputs": [
        {
          "internalType": "uint256",
          "name": "_eventId",
          "type": "uint256"
        },
        {
          "internalType": "uint256",
          "name": "_ticketsToBuy",
          "type": "uint256"
        },
        {
          "internalType": "uint256",
          "name": "tokensPay",
          "type": "uint256"
        }
      ],
      "name": "purchaseTickets",
      "outputs": [],
      "stateMutability": "payable",
      "type": "function"
    },
    {
      "inputs": [
        {
          "internalType": "uint256",
          "name": "_eventId",
          "type": "uint256"
        }
      ],
      "name": "removeEvent",
      "outputs": [],
      "stateMutability": "nonpayable",
      "type": "function"
    },
    {
      "inputs": [],
      "name": "rewardLimit",
      "outputs": [
        {
          "internalType": "uint256",
          "name": "",
          "type": "uint256"
        }
      ],
      "stateMutability": "view",
      "type": "function"
    },
    {
      "inputs": [
        {
          "internalType": "uint256",
          "name": "_eventId",
          "type": "uint256"
        },
        {
          "internalType": "bool",
          "name": "status",
          "type": "bool"
        }
      ],
      "name": "setEventStatus",
      "outputs": [],
      "stateMutability": "nonpayable",
      "type": "function"
    },
    {
      "inputs": [
        {
          "internalType": "uint256",
          "name": "_amount",
          "type": "uint256"
        }
      ],
      "name": "withdrawToOwner",
      "outputs": [],
      "stateMutability": "nonpayable",
      "type": "function"
    },
    {
      "stateMutability": "payable",
      "type": "receive"
    }
  ],
  "bytecode": "0x60806040526616d14f87e221786002553480156200001c57600080fd5b5033600360006101000a81548173ffffffffffffffffffffffffffffffffffffffff021916908373ffffffffffffffffffffffffffffffffffffffff1602179055506103e86040516200006f90620000df565b6200007b919062000144565b604051809103906000f08015801562000098573d6000803e3d6000fd5b50600460006101000a81548173ffffffffffffffffffffffffffffffffffffffff021916908373ffffffffffffffffffffffffffffffffffffffff16021790555062000161565b6117f2806200296083390190565b6000819050919050565b6000819050919050565b6000819050919050565b60006200012c620001266200012084620000ed565b62000101565b620000f7565b9050919050565b6200013e816200010b565b82525050565b60006020820190506200015b600083018462000133565b92915050565b6127ef80620001716000396000f3fe6080604052600436106100ec5760003560e01c80636a5bbc1d1161008a5780639e9580f6116100595780639e9580f6146102cc578063c4b1363e146102f5578063c4e41b2214610320578063eb67399f1461034b576100f3565b80636a5bbc1d146102245780636f9fb98a1461024d578063836b035a146102785780638da5cb5b146102a1576100f3565b80632092cf91116100c65780632092cf911461018b578063392d399b146101b65780634fe869cc146101d257806356164e1e146101fb576100f3565b80630b791430146100f55780631c680d3c146101355780631db0694914610160576100f3565b366100f357005b005b34801561010157600080fd5b5061011c6004803603810190610117919061167a565b610376565b60405161012c9493929190611761565b60405180910390f35b34801561014157600080fd5b5061014a61043b565b60405161015791906117ad565b60405180910390f35b34801561016c57600080fd5b5061017561056e565b6040516101829190611968565b60405180910390f35b34801561019757600080fd5b506101a061071c565b6040516101ad91906117ad565b60405180910390f35b6101d060048036038101906101cb919061198a565b6107bf565b005b3480156101de57600080fd5b506101f960048036038101906101f4919061167a565b610b88565b005b34801561020757600080fd5b50610222600480360381019061021d919061167a565b610c65565b005b34801561023057600080fd5b5061024b6004803603810190610246919061167a565b610da1565b005b34801561025957600080fd5b50610262610f46565b60405161026f91906117ad565b60405180910390f35b34801561028457600080fd5b5061029f600480360381019061029a9190611a09565b610fde565b005b3480156102ad57600080fd5b506102b66110e3565b6040516102c39190611a8a565b60405180910390f35b3480156102d857600080fd5b506102f360048036038101906102ee9190611bda565b611109565b005b34801561030157600080fd5b5061030a61125a565b60405161031791906117ad565b60405180910390f35b34801561032c57600080fd5b50610335611260565b60405161034291906117ad565b60405180910390f35b34801561035757600080fd5b50610360611388565b60405161036d9190611d5b565b60405180910390f35b600060205280600052604060002060009150905080600001805461039990611dac565b80601f01602080910402602001604051908101604052809291908181526020018280546103c590611dac565b80156104125780601f106103e757610100808354040283529160200191610412565b820191906000526020600020905b8154815290600101906020018083116103f557829003601f168201915b5050505050908060010154908060020154908060030160009054906101000a900460ff16905084565b6000600360009054906101000a900473ffffffffffffffffffffffffffffffffffffffff1673ffffffffffffffffffffffffffffffffffffffff163373ffffffffffffffffffffffffffffffffffffffff16146104cd576040517f08c379a00000000000000000000000000000000000000000000000000000000081526004016104c490611e4f565b60405180910390fd5b600460009054906101000a900473ffffffffffffffffffffffffffffffffffffffff1673ffffffffffffffffffffffffffffffffffffffff166370a08231306040518263ffffffff1660e01b81526004016105289190611a8a565b602060405180830381865afa158015610545573d6000803e3d6000fd5b505050506040513d601f19601f820116820180604052508101906105699190611e84565b905090565b6060600060015467ffffffffffffffff81111561058e5761058d611aaf565b5b6040519080825280602002602001820160405280156105c757816020015b6105b46115de565b8152602001906001900390816105ac5790505b50905060005b600154811015610714576040518060a00160405280828152602001600080848152602001908152602001600020600001805461060890611dac565b80601f016020809104026020016040519081016040528092919081815260200182805461063490611dac565b80156106815780601f1061065657610100808354040283529160200191610681565b820191906000526020600020905b81548152906001019060200180831161066457829003601f168201915b5050505050815260200160008084815260200190815260200160002060010154815260200160008084815260200190815260200160002060020154815260200160008084815260200190815260200160002060030160009054906101000a900460ff1615158152508282815181106106fc576106fb611eb1565b5b602002602001018190525080806001019150506105cd565b508091505090565b6000600460009054906101000a900473ffffffffffffffffffffffffffffffffffffffff1673ffffffffffffffffffffffffffffffffffffffff166370a08231336040518263ffffffff1660e01b81526004016107799190611a8a565b602060405180830381865afa158015610796573d6000803e3d6000fd5b505050506040513d601f19601f820116820180604052508101906107ba9190611e84565b905090565b6001548310610803576040517f08c379a00000000000000000000000000000000000000000000000000000000081526004016107fa90611f2c565b60405180910390fd5b600080600085815260200190815260200160002090508060030160009054906101000a900460ff1661086a576040517f08c379a000000000000000000000000000000000000000000000000000000000815260040161086190611f98565b60405180910390fd5b82816001015410156108b1576040517f08c379a00000000000000000000000000000000000000000000000000000000081526004016108a890612004565b60405180910390fd5b6000821115610905576108c261071c565b821115610904576040517f08c379a00000000000000000000000000000000000000000000000000000000081526004016108fb90612096565b60405180910390fd5b5b600061d7ef60058461091791906120e5565b61092191906120e5565b82600201548561093191906120e5565b61093b9190612127565b905080341015610980576040517f08c379a0000000000000000000000000000000000000000000000000000000008152600401610977906121a7565b60405180910390fd5b6000831115610a1b57600460009054906101000a900473ffffffffffffffffffffffffffffffffffffffff1673ffffffffffffffffffffffffffffffffffffffff16639cff2eba3330866040518463ffffffff1660e01b81526004016109e8939291906121c7565b600060405180830381600087803b158015610a0257600080fd5b505af1158015610a16573d6000803e3d6000fd5b505050505b838260040160003373ffffffffffffffffffffffffffffffffffffffff1673ffffffffffffffffffffffffffffffffffffffff1681526020019081526020016000206000828254610a6c91906121fe565b9250508190555083826001016000828254610a879190612127565b925050819055506002543410610b4657600060025434610aa79190612261565b90506000811115610b4457600460009054906101000a900473ffffffffffffffffffffffffffffffffffffffff1673ffffffffffffffffffffffffffffffffffffffff16639cff2eba3033846040518463ffffffff1660e01b8152600401610b11939291906121c7565b600060405180830381600087803b158015610b2b57600080fd5b505af1158015610b3f573d6000803e3d6000fd5b505050505b505b7ff7c58d5e745042ae3ed41454214210ae1bca7e4a2087c19a3fb2cfc0ed7648e7853386604051610b7993929190612292565b60405180910390a15050505050565b600360009054906101000a900473ffffffffffffffffffffffffffffffffffffffff1673ffffffffffffffffffffffffffffffffffffffff163373ffffffffffffffffffffffffffffffffffffffff1614610c18576040517f08c379a0000000000000000000000000000000000000000000000000000000008152600401610c0f90611e4f565b60405180910390fd5b60008111610c5b576040517f08c379a0000000000000000000000000000000000000000000000000000000008152600401610c5290612315565b60405180910390fd5b8060028190555050565b600360009054906101000a900473ffffffffffffffffffffffffffffffffffffffff1673ffffffffffffffffffffffffffffffffffffffff163373ffffffffffffffffffffffffffffffffffffffff1614610cf5576040517f08c379a0000000000000000000000000000000000000000000000000000000008152600401610cec90611e4f565b60405180910390fd5b6001548110610d39576040517f08c379a0000000000000000000000000000000000000000000000000000000008152600401610d3090611f2c565b60405180910390fd5b600080600083815260200190815260200160002060030160006101000a81548160ff0219169083151502179055507f6e7fca178a234e4fc64e21ad37436e010bf09bd34f8ae72ad858d8812ca17b3681604051610d9691906117ad565b60405180910390a150565b600360009054906101000a900473ffffffffffffffffffffffffffffffffffffffff1673ffffffffffffffffffffffffffffffffffffffff163373ffffffffffffffffffffffffffffffffffffffff1614610e31576040517f08c379a0000000000000000000000000000000000000000000000000000000008152600401610e2890611e4f565b60405180910390fd5b47811115610e74576040517f08c379a0000000000000000000000000000000000000000000000000000000008152600401610e6b90612381565b60405180910390fd5b6000600360009054906101000a900473ffffffffffffffffffffffffffffffffffffffff1673ffffffffffffffffffffffffffffffffffffffff1682604051610ebc906123d2565b60006040518083038185875af1925050503d8060008114610ef9576040519150601f19603f3d011682016040523d82523d6000602084013e610efe565b606091505b5050905080610f42576040517f08c379a0000000000000000000000000000000000000000000000000000000008152600401610f3990612433565b60405180910390fd5b5050565b6000600360009054906101000a900473ffffffffffffffffffffffffffffffffffffffff1673ffffffffffffffffffffffffffffffffffffffff163373ffffffffffffffffffffffffffffffffffffffff1614610fd8576040517f08c379a0000000000000000000000000000000000000000000000000000000008152600401610fcf90611e4f565b60405180910390fd5b47905090565b600360009054906101000a900473ffffffffffffffffffffffffffffffffffffffff1673ffffffffffffffffffffffffffffffffffffffff163373ffffffffffffffffffffffffffffffffffffffff161461106e576040517f08c379a000000000000000000000000000000000000000000000000000000000815260040161106590611e4f565b60405180910390fd5b60015482106110b2576040517f08c379a00000000000000000000000000000000000000000000000000000000081526004016110a990611f2c565b60405180910390fd5b8060008084815260200190815260200160002060030160006101000a81548160ff0219169083151502179055505050565b600360009054906101000a900473ffffffffffffffffffffffffffffffffffffffff1681565b600360009054906101000a900473ffffffffffffffffffffffffffffffffffffffff1673ffffffffffffffffffffffffffffffffffffffff163373ffffffffffffffffffffffffffffffffffffffff1614611199576040517f08c379a000000000000000000000000000000000000000000000000000000000815260040161119090611e4f565b60405180910390fd5b600080600060015481526020019081526020016000209050838160000190816111c291906125ff565b5082816001018190555081816002018190555060018160030160006101000a81548160ff02191690831515021790555060016000815480929190611205906126d1565b91905055507f42e6867e52299b45991308391cccb9ee79466d194059ff10fc15c2d88f0ea061600180546112399190612127565b85858560405161124c9493929190612719565b60405180910390a150505050565b60025481565b6000600360009054906101000a900473ffffffffffffffffffffffffffffffffffffffff1673ffffffffffffffffffffffffffffffffffffffff163373ffffffffffffffffffffffffffffffffffffffff16146112f2576040517f08c379a00000000000000000000000000000000000000000000000000000000081526004016112e990611e4f565b60405180910390fd5b600460009054906101000a900473ffffffffffffffffffffffffffffffffffffffff1673ffffffffffffffffffffffffffffffffffffffff166318160ddd6040518163ffffffff1660e01b8152600401602060405180830381865afa15801561135f573d6000803e3d6000fd5b505050506040513d601f19601f820116820180604052508101906113839190611e84565b905090565b6060600060015467ffffffffffffffff8111156113a8576113a7611aaf565b5b6040519080825280602002602001820160405280156113e157816020015b6113ce61160f565b8152602001906001900390816113c65790505b5090506000805b6001548110156115d2576001151560008083815260200190815260200160002060030160009054906101000a900460ff161515036115c557600080600083815260200190815260200160002060040160003373ffffffffffffffffffffffffffffffffffffffff1673ffffffffffffffffffffffffffffffffffffffff1681526020019081526020016000205411156115c457604051806060016040528082815260200160008084815260200190815260200160002060000180546114ac90611dac565b80601f01602080910402602001604051908101604052809291908181526020018280546114d890611dac565b80156115255780601f106114fa57610100808354040283529160200191611525565b820191906000526020600020905b81548152906001019060200180831161150857829003601f168201915b5050505050815260200160008084815260200190815260200160002060040160003373ffffffffffffffffffffffffffffffffffffffff1673ffffffffffffffffffffffffffffffffffffffff1681526020019081526020016000205481525083836fffffffffffffffffffffffffffffffff16815181106115aa576115a9611eb1565b5b602002602001018190525081806115c090612781565b9250505b5b80806001019150506113e8565b50808252819250505090565b6040518060a00160405280600081526020016060815260200160008152602001600081526020016000151581525090565b60405180606001604052806000815260200160608152602001600081525090565b6000604051905090565b600080fd5b600080fd5b6000819050919050565b61165781611644565b811461166257600080fd5b50565b6000813590506116748161164e565b92915050565b6000602082840312156116905761168f61163a565b5b600061169e84828501611665565b91505092915050565b600081519050919050565b600082825260208201905092915050565b60005b838110156116e15780820151818401526020810190506116c6565b60008484015250505050565b6000601f19601f8301169050919050565b6000611709826116a7565b61171381856116b2565b93506117238185602086016116c3565b61172c816116ed565b840191505092915050565b61174081611644565b82525050565b60008115159050919050565b61175b81611746565b82525050565b6000608082019050818103600083015261177b81876116fe565b905061178a6020830186611737565b6117976040830185611737565b6117a46060830184611752565b95945050505050565b60006020820190506117c26000830184611737565b92915050565b600081519050919050565b600082825260208201905092915050565b6000819050602082019050919050565b6117fd81611644565b82525050565b600082825260208201905092915050565b600061181f826116a7565b6118298185611803565b93506118398185602086016116c3565b611842816116ed565b840191505092915050565b61185681611746565b82525050565b600060a08301600083015161187460008601826117f4565b506020830151848203602086015261188c8282611814565b91505060408301516118a160408601826117f4565b5060608301516118b460608601826117f4565b5060808301516118c7608086018261184d565b508091505092915050565b60006118de838361185c565b905092915050565b6000602082019050919050565b60006118fe826117c8565b61190881856117d3565b93508360208202850161191a856117e4565b8060005b85811015611956578484038952815161193785826118d2565b9450611942836118e6565b925060208a0199505060018101905061191e565b50829750879550505050505092915050565b6000602082019050818103600083015261198281846118f3565b905092915050565b6000806000606084860312156119a3576119a261163a565b5b60006119b186828701611665565b93505060206119c286828701611665565b92505060406119d386828701611665565b9150509250925092565b6119e681611746565b81146119f157600080fd5b50565b600081359050611a03816119dd565b92915050565b60008060408385031215611a2057611a1f61163a565b5b6000611a2e85828601611665565b9250506020611a3f858286016119f4565b9150509250929050565b600073ffffffffffffffffffffffffffffffffffffffff82169050919050565b6000611a7482611a49565b9050919050565b611a8481611a69565b82525050565b6000602082019050611a9f6000830184611a7b565b92915050565b600080fd5b600080fd5b7f4e487b7100000000000000000000000000000000000000000000000000000000600052604160045260246000fd5b611ae7826116ed565b810181811067ffffffffffffffff82111715611b0657611b05611aaf565b5b80604052505050565b6000611b19611630565b9050611b258282611ade565b919050565b600067ffffffffffffffff821115611b4557611b44611aaf565b5b611b4e826116ed565b9050602081019050919050565b82818337600083830152505050565b6000611b7d611b7884611b2a565b611b0f565b905082815260208101848484011115611b9957611b98611aaa565b5b611ba4848285611b5b565b509392505050565b600082601f830112611bc157611bc0611aa5565b5b8135611bd1848260208601611b6a565b91505092915050565b600080600060608486031215611bf357611bf261163a565b5b600084013567ffffffffffffffff811115611c1157611c1061163f565b5b611c1d86828701611bac565b9350506020611c2e86828701611665565b9250506040611c3f86828701611665565b9150509250925092565b600081519050919050565b600082825260208201905092915050565b6000819050602082019050919050565b6000606083016000830151611c8d60008601826117f4565b5060208301518482036020860152611ca58282611814565b9150506040830151611cba60408601826117f4565b508091505092915050565b6000611cd18383611c75565b905092915050565b6000602082019050919050565b6000611cf182611c49565b611cfb8185611c54565b935083602082028501611d0d85611c65565b8060005b85811015611d495784840389528151611d2a8582611cc5565b9450611d3583611cd9565b925060208a01995050600181019050611d11565b50829750879550505050505092915050565b60006020820190508181036000830152611d758184611ce6565b905092915050565b7f4e487b7100000000000000000000000000000000000000000000000000000000600052602260045260246000fd5b60006002820490506001821680611dc457607f821691505b602082108103611dd757611dd6611d7d565b5b50919050565b7f4f6e6c79206f776e65722063616e2063616c6c20746869732066756e6374696f60008201527f6e00000000000000000000000000000000000000000000000000000000000000602082015250565b6000611e396021836116b2565b9150611e4482611ddd565b604082019050919050565b60006020820190508181036000830152611e6881611e2c565b9050919050565b600081519050611e7e8161164e565b92915050565b600060208284031215611e9a57611e9961163a565b5b6000611ea884828501611e6f565b91505092915050565b7f4e487b7100000000000000000000000000000000000000000000000000000000600052603260045260246000fd5b7f496e76616c6964206576656e7420494400000000000000000000000000000000600082015250565b6000611f166010836116b2565b9150611f2182611ee0565b602082019050919050565b60006020820190508181036000830152611f4581611f09565b9050919050565b7f4576656e74206973206e6f742061637469766500000000000000000000000000600082015250565b6000611f826013836116b2565b9150611f8d82611f4c565b602082019050919050565b60006020820190508181036000830152611fb181611f75565b9050919050565b7f4e6f7420656e6f756768207469636b65747320617661696c61626c6500000000600082015250565b6000611fee601c836116b2565b9150611ff982611fb8565b602082019050919050565b6000602082019050818103600083015261201d81611fe1565b9050919050565b7f4e6f7420656e6f75676820746f6b656e7320696e20796f7572206163636f756e60008201527f7400000000000000000000000000000000000000000000000000000000000000602082015250565b60006120806021836116b2565b915061208b82612024565b604082019050919050565b600060208201905081810360008301526120af81612073565b9050919050565b7f4e487b7100000000000000000000000000000000000000000000000000000000600052601160045260246000fd5b60006120f082611644565b91506120fb83611644565b925082820261210981611644565b915082820484148315176121205761211f6120b6565b5b5092915050565b600061213282611644565b915061213d83611644565b9250828203905081811115612155576121546120b6565b5b92915050565b7f4e6f7420656e6f756768206d6f6e65792073656e640000000000000000000000600082015250565b60006121916015836116b2565b915061219c8261215b565b602082019050919050565b600060208201905081810360008301526121c081612184565b9050919050565b60006060820190506121dc6000830186611a7b565b6121e96020830185611a7b565b6121f66040830184611737565b949350505050565b600061220982611644565b915061221483611644565b925082820190508082111561222c5761222b6120b6565b5b92915050565b7f4e487b7100000000000000000000000000000000000000000000000000000000600052601260045260246000fd5b600061226c82611644565b915061227783611644565b92508261228757612286612232565b5b828204905092915050565b60006060820190506122a76000830186611737565b6122b46020830185611a7b565b6122c16040830184611737565b949350505050565b7f526577617264204c696d6974206d7573742062652061626f7665203000000000600082015250565b60006122ff601c836116b2565b915061230a826122c9565b602082019050919050565b6000602082019050818103600083015261232e816122f2565b9050919050565b7f4e6f7420656e6f756768206d6f6e657900000000000000000000000000000000600082015250565b600061236b6010836116b2565b915061237682612335565b602082019050919050565b6000602082019050818103600083015261239a8161235e565b9050919050565b600081905092915050565b50565b60006123bc6000836123a1565b91506123c7826123ac565b600082019050919050565b60006123dd826123af565b9150819050919050565b7f4572726f72206f6e2073656e64696e6720746f206f776e657200000000000000600082015250565b600061241d6019836116b2565b9150612428826123e7565b602082019050919050565b6000602082019050818103600083015261244c81612410565b9050919050565b60008190508160005260206000209050919050565b60006020601f8301049050919050565b600082821b905092915050565b6000600883026124b57fffffffffffffffffffffffffffffffffffffffffffffffffffffffffffffffff82612478565b6124bf8683612478565b95508019841693508086168417925050509392505050565b6000819050919050565b60006124fc6124f76124f284611644565b6124d7565b611644565b9050919050565b6000819050919050565b612516836124e1565b61252a61252282612503565b848454612485565b825550505050565b600090565b61253f612532565b61254a81848461250d565b505050565b5b8181101561256e57612563600082612537565b600181019050612550565b5050565b601f8211156125b35761258481612453565b61258d84612468565b8101602085101561259c578190505b6125b06125a885612468565b83018261254f565b50505b505050565b600082821c905092915050565b60006125d6600019846008026125b8565b1980831691505092915050565b60006125ef83836125c5565b9150826002028217905092915050565b612608826116a7565b67ffffffffffffffff81111561262157612620611aaf565b5b61262b8254611dac565b612636828285612572565b600060209050601f8311600181146126695760008415612657578287015190505b61266185826125e3565b8655506126c9565b601f19841661267786612453565b60005b8281101561269f5784890151825560018201915060208501945060208101905061267a565b868310156126bc57848901516126b8601f8916826125c5565b8355505b6001600288020188555050505b505050505050565b60006126dc82611644565b91507fffffffffffffffffffffffffffffffffffffffffffffffffffffffffffffffff820361270e5761270d6120b6565b5b600182019050919050565b600060808201905061272e6000830187611737565b818103602083015261274081866116fe565b905061274f6040830185611737565b61275c6060830184611737565b95945050505050565b60006fffffffffffffffffffffffffffffffff82169050919050565b600061278c82612765565b91506fffffffffffffffffffffffffffffffff82036127ae576127ad6120b6565b5b60018201905091905056fea2646970667358221220e5099bcea2ce069db4e1c3a534a121b776178c09b392fbf458b311987b90c42664736f6c6343000818003360806040523480156200001157600080fd5b50604051620017f2380380620017f28339818101604052810190620000379190620003df565b6040518060400160405280600681526020017f5449434b455400000000000000000000000000000000000000000000000000008152506040518060400160405280600381526020017f54434b00000000000000000000000000000000000000000000000000000000008152508160039081620000b4919062000681565b508060049081620000c6919062000681565b505050620000db3382620000e260201b60201c565b506200089f565b600073ffffffffffffffffffffffffffffffffffffffff168273ffffffffffffffffffffffffffffffffffffffff1603620001575760006040517fec442f050000000000000000000000000000000000000000000000000000000081526004016200014e9190620007ad565b60405180910390fd5b6200016b600083836200016f60201b60201c565b5050565b600073ffffffffffffffffffffffffffffffffffffffff168373ffffffffffffffffffffffffffffffffffffffff1603620001c5578060026000828254620001b89190620007f9565b925050819055506200029b565b60008060008573ffffffffffffffffffffffffffffffffffffffff1673ffffffffffffffffffffffffffffffffffffffff1681526020019081526020016000205490508181101562000254578381836040517fe450d38c0000000000000000000000000000000000000000000000000000000081526004016200024b9392919062000845565b60405180910390fd5b8181036000808673ffffffffffffffffffffffffffffffffffffffff1673ffffffffffffffffffffffffffffffffffffffff16815260200190815260200160002081905550505b600073ffffffffffffffffffffffffffffffffffffffff168273ffffffffffffffffffffffffffffffffffffffff1603620002e6578060026000828254039250508190555062000333565b806000808473ffffffffffffffffffffffffffffffffffffffff1673ffffffffffffffffffffffffffffffffffffffff168152602001908152602001600020600082825401925050819055505b8173ffffffffffffffffffffffffffffffffffffffff168373ffffffffffffffffffffffffffffffffffffffff167fddf252ad1be2c89b69c2b068fc378daa952ba7f163c4a11628f55a4df523b3ef8360405162000392919062000882565b60405180910390a3505050565b600080fd5b6000819050919050565b620003b981620003a4565b8114620003c557600080fd5b50565b600081519050620003d981620003ae565b92915050565b600060208284031215620003f857620003f76200039f565b5b60006200040884828501620003c8565b91505092915050565b600081519050919050565b7f4e487b7100000000000000000000000000000000000000000000000000000000600052604160045260246000fd5b7f4e487b7100000000000000000000000000000000000000000000000000000000600052602260045260246000fd5b600060028204905060018216806200049357607f821691505b602082108103620004a957620004a86200044b565b5b50919050565b60008190508160005260206000209050919050565b60006020601f8301049050919050565b600082821b905092915050565b600060088302620005137fffffffffffffffffffffffffffffffffffffffffffffffffffffffffffffffff82620004d4565b6200051f8683620004d4565b95508019841693508086168417925050509392505050565b6000819050919050565b6000620005626200055c6200055684620003a4565b62000537565b620003a4565b9050919050565b6000819050919050565b6200057e8362000541565b620005966200058d8262000569565b848454620004e1565b825550505050565b600090565b620005ad6200059e565b620005ba81848462000573565b505050565b5b81811015620005e257620005d6600082620005a3565b600181019050620005c0565b5050565b601f8211156200063157620005fb81620004af565b6200060684620004c4565b8101602085101562000616578190505b6200062e6200062585620004c4565b830182620005bf565b50505b505050565b600082821c905092915050565b6000620006566000198460080262000636565b1980831691505092915050565b600062000671838362000643565b9150826002028217905092915050565b6200068c8262000411565b67ffffffffffffffff811115620006a857620006a76200041c565b5b620006b482546200047a565b620006c1828285620005e6565b600060209050601f831160018114620006f95760008415620006e4578287015190505b620006f0858262000663565b86555062000760565b601f1984166200070986620004af565b60005b8281101562000733578489015182556001820191506020850194506020810190506200070c565b868310156200075357848901516200074f601f89168262000643565b8355505b6001600288020188555050505b505050505050565b600073ffffffffffffffffffffffffffffffffffffffff82169050919050565b6000620007958262000768565b9050919050565b620007a78162000788565b82525050565b6000602082019050620007c460008301846200079c565b92915050565b7f4e487b7100000000000000000000000000000000000000000000000000000000600052601160045260246000fd5b60006200080682620003a4565b91506200081383620003a4565b92508282019050808211156200082e576200082d620007ca565b5b92915050565b6200083f81620003a4565b82525050565b60006060820190506200085c60008301866200079c565b6200086b602083018562000834565b6200087a604083018462000834565b949350505050565b600060208201905062000899600083018462000834565b92915050565b610f4380620008af6000396000f3fe608060405234801561001057600080fd5b50600436106100a95760003560e01c806370a082311161007157806370a08231146101685780639533a3841461019857806395d89b41146101b45780639cff2eba146101d2578063a9059cbb146101ee578063dd62ed3e1461021e576100a9565b806306fdde03146100ae578063095ea7b3146100cc57806318160ddd146100fc57806323b872dd1461011a578063313ce5671461014a575b600080fd5b6100b661024e565b6040516100c39190610b97565b60405180910390f35b6100e660048036038101906100e19190610c52565b6102e0565b6040516100f39190610cad565b60405180910390f35b610104610303565b6040516101119190610cd7565b60405180910390f35b610134600480360381019061012f9190610cf2565b61030d565b6040516101419190610cad565b60405180910390f35b61015261033c565b60405161015f9190610d61565b60405180910390f35b610182600480360381019061017d9190610d7c565b610345565b60405161018f9190610cd7565b60405180910390f35b6101b260048036038101906101ad9190610c52565b61038d565b005b6101bc61039b565b6040516101c99190610b97565b60405180910390f35b6101ec60048036038101906101e79190610cf2565b61042d565b005b61020860048036038101906102039190610c52565b61043d565b6040516102159190610cad565b60405180910390f35b61023860048036038101906102339190610da9565b610460565b6040516102459190610cd7565b60405180910390f35b60606003805461025d90610e18565b80601f016020809104026020016040519081016040528092919081815260200182805461028990610e18565b80156102d65780601f106102ab576101008083540402835291602001916102d6565b820191906000526020600020905b8154815290600101906020018083116102b957829003601f168201915b5050505050905090565b6000806102eb6104e7565b90506102f88185856104ef565b600191505092915050565b6000600254905090565b6000806103186104e7565b9050610325858285610501565b610330858585610595565b60019150509392505050565b60006012905090565b60008060008373ffffffffffffffffffffffffffffffffffffffff1673ffffffffffffffffffffffffffffffffffffffff168152602001908152602001600020549050919050565b6103978282610689565b5050565b6060600480546103aa90610e18565b80601f01602080910402602001604051908101604052809291908181526020018280546103d690610e18565b80156104235780601f106103f857610100808354040283529160200191610423565b820191906000526020600020905b81548152906001019060200180831161040657829003601f168201915b5050505050905090565b610438838383610595565b505050565b6000806104486104e7565b9050610455818585610595565b600191505092915050565b6000600160008473ffffffffffffffffffffffffffffffffffffffff1673ffffffffffffffffffffffffffffffffffffffff16815260200190815260200160002060008373ffffffffffffffffffffffffffffffffffffffff1673ffffffffffffffffffffffffffffffffffffffff16815260200190815260200160002054905092915050565b600033905090565b6104fc838383600161070b565b505050565b600061050d8484610460565b90507fffffffffffffffffffffffffffffffffffffffffffffffffffffffffffffffff811461058f578181101561057f578281836040517ffb8f41b200000000000000000000000000000000000000000000000000000000815260040161057693929190610e58565b60405180910390fd5b61058e8484848403600061070b565b5b50505050565b600073ffffffffffffffffffffffffffffffffffffffff168373ffffffffffffffffffffffffffffffffffffffff16036106075760006040517f96c6fd1e0000000000000000000000000000000000000000000000000000000081526004016105fe9190610e8f565b60405180910390fd5b600073ffffffffffffffffffffffffffffffffffffffff168273ffffffffffffffffffffffffffffffffffffffff16036106795760006040517fec442f050000000000000000000000000000000000000000000000000000000081526004016106709190610e8f565b60405180910390fd5b6106848383836108e2565b505050565b600073ffffffffffffffffffffffffffffffffffffffff168273ffffffffffffffffffffffffffffffffffffffff16036106fb5760006040517fec442f050000000000000000000000000000000000000000000000000000000081526004016106f29190610e8f565b60405180910390fd5b610707600083836108e2565b5050565b600073ffffffffffffffffffffffffffffffffffffffff168473ffffffffffffffffffffffffffffffffffffffff160361077d5760006040517fe602df050000000000000000000000000000000000000000000000000000000081526004016107749190610e8f565b60405180910390fd5b600073ffffffffffffffffffffffffffffffffffffffff168373ffffffffffffffffffffffffffffffffffffffff16036107ef5760006040517f94280d620000000000000000000000000000000000000000000000000000000081526004016107e69190610e8f565b60405180910390fd5b81600160008673ffffffffffffffffffffffffffffffffffffffff1673ffffffffffffffffffffffffffffffffffffffff16815260200190815260200160002060008573ffffffffffffffffffffffffffffffffffffffff1673ffffffffffffffffffffffffffffffffffffffff1681526020019081526020016000208190555080156108dc578273ffffffffffffffffffffffffffffffffffffffff168473ffffffffffffffffffffffffffffffffffffffff167f8c5be1e5ebec7d5bd14f71427d1e84f3dd0314c0f7b2291e5b200ac8c7c3b925846040516108d39190610cd7565b60405180910390a35b50505050565b600073ffffffffffffffffffffffffffffffffffffffff168373ffffffffffffffffffffffffffffffffffffffff16036109345780600260008282546109289190610ed9565b92505081905550610a07565b60008060008573ffffffffffffffffffffffffffffffffffffffff1673ffffffffffffffffffffffffffffffffffffffff168152602001908152602001600020549050818110156109c0578381836040517fe450d38c0000000000000000000000000000000000000000000000000000000081526004016109b793929190610e58565b60405180910390fd5b8181036000808673ffffffffffffffffffffffffffffffffffffffff1673ffffffffffffffffffffffffffffffffffffffff16815260200190815260200160002081905550505b600073ffffffffffffffffffffffffffffffffffffffff168273ffffffffffffffffffffffffffffffffffffffff1603610a505780600260008282540392505081905550610a9d565b806000808473ffffffffffffffffffffffffffffffffffffffff1673ffffffffffffffffffffffffffffffffffffffff168152602001908152602001600020600082825401925050819055505b8173ffffffffffffffffffffffffffffffffffffffff168373ffffffffffffffffffffffffffffffffffffffff167fddf252ad1be2c89b69c2b068fc378daa952ba7f163c4a11628f55a4df523b3ef83604051610afa9190610cd7565b60405180910390a3505050565b600081519050919050565b600082825260208201905092915050565b60005b83811015610b41578082015181840152602081019050610b26565b60008484015250505050565b6000601f19601f8301169050919050565b6000610b6982610b07565b610b738185610b12565b9350610b83818560208601610b23565b610b8c81610b4d565b840191505092915050565b60006020820190508181036000830152610bb18184610b5e565b905092915050565b600080fd5b600073ffffffffffffffffffffffffffffffffffffffff82169050919050565b6000610be982610bbe565b9050919050565b610bf981610bde565b8114610c0457600080fd5b50565b600081359050610c1681610bf0565b92915050565b6000819050919050565b610c2f81610c1c565b8114610c3a57600080fd5b50565b600081359050610c4c81610c26565b92915050565b60008060408385031215610c6957610c68610bb9565b5b6000610c7785828601610c07565b9250506020610c8885828601610c3d565b9150509250929050565b60008115159050919050565b610ca781610c92565b82525050565b6000602082019050610cc26000830184610c9e565b92915050565b610cd181610c1c565b82525050565b6000602082019050610cec6000830184610cc8565b92915050565b600080600060608486031215610d0b57610d0a610bb9565b5b6000610d1986828701610c07565b9350506020610d2a86828701610c07565b9250506040610d3b86828701610c3d565b9150509250925092565b600060ff82169050919050565b610d5b81610d45565b82525050565b6000602082019050610d766000830184610d52565b92915050565b600060208284031215610d9257610d91610bb9565b5b6000610da084828501610c07565b91505092915050565b60008060408385031215610dc057610dbf610bb9565b5b6000610dce85828601610c07565b9250506020610ddf85828601610c07565b9150509250929050565b7f4e487b7100000000000000000000000000000000000000000000000000000000600052602260045260246000fd5b60006002820490506001821680610e3057607f821691505b602082108103610e4357610e42610de9565b5b50919050565b610e5281610bde565b82525050565b6000606082019050610e6d6000830186610e49565b610e7a6020830185610cc8565b610e876040830184610cc8565b949350505050565b6000602082019050610ea46000830184610e49565b92915050565b7f4e487b7100000000000000000000000000000000000000000000000000000000600052601160045260246000fd5b6000610ee482610c1c565b9150610eef83610c1c565b9250828201905080821115610f0757610f06610eaa565b5b9291505056fea264697066735822122068e801c74de43afbe02d48c9cb0a018679f4f75b9c4589f29ac5f8cf2cd7c10b64736f6c63430008180033",
  "linkReferences": {},
  "deployedLinkReferences": {}
}